:03000000020222D7
:0C022200787FE4F6D8FD75811F020269A8
:10030600456E7465722050617373776F72643A003C
:100316003132313235004572726F72004F70656E40
:020326002100B4
:10036E000B0A303132333435363738392A01190019
:0E02AE003517F583E493FF1203457F057E00AC
:1002BC00D3EF9400EE940040147D6E7C00ED1D7025
:0D02CC00011CED4C70F7EF1F70E61E80E383
:0102D9002202
:0E038F00C2A6C2A5D2A78F801202B8C2A722B2
:10034500D2A6C2A58F807F0A7E001202BCD2A71258
:0503550002B8C2A7225E
:10035A007F3812038F7F0C12038F7F0612038F7F61
:04036A000102038FFA
:10012800E4F51F7590F7AF90EF64F7602C7F647E5D
:10013800001202BCAF90EF2449601124E060122441
:10014800F0601324707012751F01800D751F0580F3
:1001580008751F098003751F0DAF90EF64F770F9DC
:100168007590FBAF90EF64FB602C7F647E001202F9
:10017800BCAF90EF2445601124E0601224F06013B6
:1001880024707012751F02800D751F068008751F78
:100198000A8003751F0EAF90EF64FB70F97590FD30
:1001A800AF90EF64FD602C7F647E001202BCAF90BC
:1001B800EF2443601124E0601224F060132470706F
:1001C80012751F03800D751F078008751F0B8003AC
:1001D800751F0FAF90EF64FD70F97590FEAF90EF4B
:1001E80064FE602C7F647E001202BCAF90EF244254
:1001F800601124E0601224F0601324707012751FDF
:1002080004800D751F088008751F0C8003751F106A
:09021800AF90EF64FE70F9AF1F16
:0102210022BA
:10037F00758901758CFE758A35D2AFD2A9D28C22C0
:03000B000202DA14
:1002DA00C0E0C0D0758CFE758A35E509C395165005
:1002EA0004D2A08002C2A00509C3E509942874803B
:0C02FA0094804003750900D0D0D0E032A1
:10032800AB07EB640170097F0AFE1202BC75160266
:0D033800EB70097F0AFE1202BC751605224B
:10000E0012035A7F8012038FE4F517F51874062534
:10001E0018F58274031202AE0518E5187002051762
:10002E00C3940FE517940040E412037F751602E4A3
:10003E00F5091201288F15EF70030201207FC012FF
:10004E00038FC3E5199405748094805013740925A9
:10005E0015F8E6FF741A2519F8A60705191202B845
:10006E00E4F517F518C3E5189519E5179400501324
:10007E00741A2518F8E61202B40518E51870E6058C
:10008E001780E274092515F8E6642A600302012040
:10009E00F517F518741A2518F8E6FF74162518F5D5
:1000AE008274033517F583E493B50705750801804F
:1000BE0005E4F508800E0518E518700205176405AD
:1000CE00451770D0E5087022F517F518741C251821
:1000DE00F58274031202AE0518E51870020517C3F7
:1000EE009405E517940040E48028E4F517F518749C
:1000FE00222518F58274031202AE0518E518700257
:10010E000517C39405E517940040E47F647E001242
:0A011E0002BCAF08120328020040E3
:10022E0002000EE493A3F8E493A34003F68001F2D8
:10023E0008DFF48029E493A3F85407240CC8C333D1
:10024E00C4540F4420C8834004F456800146F6DFA0
:10025E00E4800B010204081020408090036EE47EBF
:10026E00019360BCA3FF543F30E509541FFEE49395
:10027E00A360010ECF54C025E060A840B8E493A35C
:10028E00FAE493A3F8E493A3C8C582C8CAC583CA87
:10029E00F0A3C8C582C8CAC583CADFE9DEE780BE3F
:01037E00007E
:00000001FF
